:1000000027C0AEC1FDCFFCCFFBCFFACFF9CFF8CFE1
:10001000F7CFF6CFF5CFF4CFF3CFF2CFF1CFF0CFCC
:10002000EFCFEECFEDCF6B59FBF1BD0CBAAE0FA702
:10003000B72CBFAF0002A793BD3B000203131B1FE9
:100040009F00100080002A00070090003A00000086
:10005000F894EE27ECBBE5BFF8E1A895A4B7A77F1D
:10006000A4BFF1BDE1BD8DE0A2E0ED938A95E9F773
:1000700080E8A0E6ED938A95E9F7E2E4F0E0859167
:100080009591009761F0A591B59105901590BF01EC
:10009000F00105900D920197E1F7FB01F0CFE0E050
:1000A000E3BBE4BBE5BBEFEDEDBFC0E8F1C0EFEFB4
:1000B000E7BBEBEFE1BBE0E0E8BBE4E0E2BBE2E0A2
:1000C000E5BFE0E4EBBFE2E0EEBD0895A0E9A30DDB
:1000D000EC91E8BB969880E991E00197F1F7969A48
:1000E000A0E9A20DEC91E8BB939880E991E001971B
:1000F000F1F7939AE0919700E058E081E8BB95987A
:1001000080E991E00197F1F7959AE0919800E05825
:10011000E081E8BB919880E991E00197F1F7919A2D
:10012000E0919900E058E081E8BB909880E991E087
:100130000197F1F7909AE0918000E8BB949880E9EC
:1001400091E00197F1F7949A0895BA93AA932497AE
:1001500087D3EE81FF81309719F4E0E0F0E033C0FF
:10016000EE81FF816627772737D2A0E0B4E284E7EB
:1001700099E492D2EA83FB836C837D83AA81BB815D
:100180008C819D81E0E0F0E060E070E485D2EA835C
:10019000FB836C837D83AA81BB818C819D81E0E0A0
:1001A000F0E060E772E446D2EA83FB836C837D83F0
:1001B000DCD18F01D801E2E3F0E0FDD28F01A2E3B0
:1001C000B0E0E1D28F0151D328960895BA93AA9353
:1001D00045D300E010E030E0F894AC81BD81A93B4C
:1001E000EBE0BE0740F0E6E03E2EE4EFF1E0D0D2D7
:1001F000E6502E2E07C0AC81BD81E4EFF1E0C8D2FD
:100200003E2E22240C811D8130E03430A0F4E3E046
:10021000E31BE9562E2FAC81BD81EAE0F0E0FAD273
:10022000A22FEC93AC81BD81EAE0F0E0B1D2EC8387
:10023000FD833F5FEACF0A30E0E01E0740F4EAE0CA
:10024000E0939700E0939800E09399001DC0D801D7
:10025000EAE0F0E07CD20E2EE4E6F0E07ED2E0218F
:1002600031F0EAE0E0939700E09398000DC0D801E8
:10027000E4E6F0E06CD20E2EE8EEF3E06ED2E02180
:1002800019F0EAE0E09397007894EDD2269608956D
:100290002497E0E0E883E983EA83EB8310E007DF5B
:1002A0007894E8B7E7FF05C09898E8B7E068E8BF3A
:1002B0009998989B1DC0E12FAC2FEE0FEA0FEF939A
:1002C000A0919B00B0919C0040DFAF91ED93FC9317
:1002D000103059F010E0EA81FB81A881B981EA175A
:1002E000FB0719F0AA81BB8171DF1F5FEFDE36C00B
:1002F000E0919600E8BB969880E991E00197F1F7CC
:10030000969AE0919600E8BB939880E991E0019776
:10031000F1F7939AE0918C00E8BB959880E991E021
:100320000197F1F7959AE0918D00E8BB919880E9EB
:1003300091E00197F1F7919AE0918E00E8BB9098D7
:1003400080E991E00197F1F7909AE0918F00E8BB86
:10035000949880E991E00197F1F7949AA2CFFFCFAA
:100360000A921A926A937A938A939A93AA93BA9367
:10037000EA93FA93EFB7EA93E8B7E7FF05C09898D6
:10038000E8B7E068E8BF9998999907C0E2E0EEBD48
:10039000E0E0EDBDECBD999AACC0E0919F00F0E0CB
:1003A0003097A9F4E0E0EEBDECB5F0E0DF01EDB58B
:1003B000FE2FE0E0EA0FFB1FE093A000F093A10006
:1003C0009998E0919F00EF5FE0939F0069C0E13052
:1003D000A0E0FA0791F5E0E0EEBDECB5F0E0DF015A
:1003E000EDB5FE2FE0E0EA0FFB1FE093A200F093D3
:1003F000A300A091A200B091A300E091A000F09111
:10040000A100E45DFE4FAE17BF0768F4A091A20003
:10041000B091A300E091A000F091A100EC52F14056
:10042000EA17FB0708F004C0E0919F00EF5F01C0EE
:10043000E0E0E0939F00999833C0E230A0E0FA0733
:1004400079F5E0E0EEBDECB5F0E0DF01EDB5FE2FB3
:10045000E0E0EA0FFB1FE093A400F093A500A09159
:10046000A400B091A500E091A200F091A300E45D8A
:10047000FE4FAE17BF0768F4A091A400B091A5008D
:10048000E091A200F091A300EC52F140EA17FB07C3
:1004900008F002C0EAE001C0E0E0E0939F00999814
:1004A000A0919F00AA3029F5A091A000B091A100D1
:1004B00088279927E091A200F091A300662777276B
:1004C00030D1E091A400F091A5006627772729D1CB
:1004D000E3E0F0E060E070E098D1E0939B00F093FF
:1004E0009C0060939D0070939E00E0E0E0939F006D
:1004F000989AE991EFBFF991E991B991A9919991F0
:10050000899179916991199009901895552342F430
:10051000503811F4E0FF04C03196691F791F6BF069
:1005200050E8572711F45F9373C05F3F31F0660FB7
:10053000000C57956795752F08955F9300200AF07A
:1005400073C06CC050E8192E1522880F991F95278B
:10055000550F879550E8072E0522660F771F7527E0
:10056000550F67950895689401C0E8945F93F2DF92
:10057000703818F07F3F08F44BC056E1571BAAF4BF
:10058000519558300EF4593030F0EFEFFFEF6FEF28
:100590007FE777F91AC077275523B9F0EE0FFF1FD1
:1005A000661F771F5A95D1F710C07727583028F06B
:1005B000EF2FF62F672F5850F9CF552331F076954E
:1005C0006795F795E7955A95D1F700200AF4B2D0D0
:1005D0005F910895689401C0E8943097604070403E
:1005E000B1F0002426F0772312F40094A3D0172E44
:1005F0007EE1112032F07A95EE0FFF1F661F111C6D
:10060000F9CFEF2FF62F612D5F938ADF5F91089569
:10061000EE27FF27662777275F910895EFEFFFEF1B
:100620006FE77FEF5F910895EFEFFFEF6FE77FE7F1
:100630005F9108955F9386DF703851F3903841F3EE
:1006400001240894791F23F41CF300203AF3ECCF23
:100650003F934F93112433274427552798E1330FB5
:10066000441F551FEE1FFF1F661F30F43A0F4B1F2C
:10067000581FE11DF11D611D9A9589F74F913F911A
:1006800066232AF0550FEE1FFF1F661F02C07395E9
:10069000E3F23CDF5F9108955F9354DF703821F4FB
:1006A00011200AF4BBCFC0CF903809F4B1CF012498
:1006B0000894970B1BF4D4F30020F3CF792F1F93EA
:1006C0002F933F934F931124112722273327442739
:1006D000552790E2AE17BF078607410730F0AE1BE3
:1006E000BF0B860B410B089401C08894551F221F35
:1006F000331F111CAA1FBB1F881F441F9A9551F757
:10070000F901612D4F913F912F911F91662332F096
:10071000550FEE1FFF1F661F7A9543F2F7DE5F91BC
:100720000895AE0FBF1F861F971F0895F195E1959D
:10073000F0400895F09560957095E195FF4F6F4FEB
:100740007F4F08956F2F660F660B762F0895AE17B3
:10075000BF07E1E008F4EE270895AE17BF07E1E018
:1007600008F0EE2708950A2E1B2E81E1AA27BB1B55
:1007700005C010F4A00DB11DB695A795F795E795A6
:100780008A95B9F7089549D0EEDF0EF4CFDF0895CA
:100790000024112490E1AA0FBB1F001C111C0E1A8B
:1007A0001F0A18F40E0E1F1E01C0A1609A9599F73A
:1007B000FD01D001089531D0EBDF0EF4B7DF0895CD
:1007C0003F934F935F93002411244427552730E231
:1007D000AA0FBB1F881F991F001C111C441F551F07
:1007E0000E1A1F0A460B570B28F40E0E1F1E461F2B
:1007F000571F01C0A1603A9559F7FD01BC01D00116
:10080000CA015F914F913F91089515D0D9DF0EF441
:1008100091DF0895BDDFFD010895E894F7FF02C060
:1008200085DF6894B7FF06C0A095B095119600F8D3
:10083000039400FA0895E89477FF02C07BDF689480
:1008400097FF0BC00024A095B095809590951196C8
:10085000801D901D00F8039400FA08953A932A939E
:100860001A930A9308953B812A811981088108957A
:00000001FF
