:0800000027C064C1FDCFFCCF55
:10000800FBCFFACFD4C1F8CFF7CFF6CFF5CFF4CFE7
:10001800F3CFF2CFF1CFF0CFEFCFEECFEDCF6B59DB
:10002800FBF1BD0CBAAE0FA7B72CBFAF0002A79368
:10003800BD3B000203131B1F9F00100080002A0015
:10004800070090003A000000F894EE27ECBBE5BFEB
:10005800F8E1A895A4B7A77FA4BFF1BDE1BD8DE0E5
:10006800A2E0ED938A95E9F780E8A0E6ED938A95FA
:10007800E9F7E2E4F0E085919591009761F0A591A8
:10008800B59105901590BF01F00105900D9201976B
:10009800E1F7FB01F0CFE0E0E3BBE4BBE5BBEFED4C
:1000A800EDBFC0E8D5C0EFEFE7BBEBEFE1BBE0E0A9
:1000B800E8BBE4E0E2BBE2E0E5BFE0E4EBBFE1E09F
:1000C800E3BFE2E0E9BFEEBD0895A0E9A30DEC911E
:1000D800E8BB96988ED1969AA0E9A20DEC91E8BB60
:1000E800939887D1939AE091970088D1959881D178
:1000F800959AE091980082D191987BD1919AE0915C
:1001080099007CD1909875D1909AE0919A0076D117
:1001180094986FD1949A0895BA93AA93249748D340
:10012800EE81FF81309719F4E0E0F0E023C0EE8122
:10013800FF8166277727F8D1A0E0B4E284E799E445
:1001480061D1E0E0F0E060E070E45CD1E0E0F0E094
:1001580060E772E417D2EA83FB836C837D83ADD1B9
:100168008F01D801E2E3F0E0CED28F01A2E3B0E044
:10017800B2D28F0122D328960895BA93AA9316D3A0
:1001880000E010E030E048D1A137E7E1BE0720F0F9
:10019800EFE6F7E1EC83FD830C811D813DD1A93B9E
:1001A800EBE0BE0730F0E6E03E2E39D1E6502E2EC9
:1001B80003C035D13E2E222430E0343090F4E3E001
:1001C800E31BE9562E2F28D1EAE0F0E0CBD2A22F8C
:1001D800EC9322D1EAE0F0E083D2EC83FD833F5F29
:1001E800ECCF0A30E0E01E0728F41ED1EAE0E093E5
:1001F800990019C0D801EAE0F0E051D20E2EE4E6E9
:10020800F0E053D2E02111F00FD10DC0D801E4E69F
:10021800F0E045D20E2EE8EEF3E047D2E02119F0E7
:10022800EAE0E0939700C7D226960895E8B7E7FF7B
:1002380005C098989998E8B7E068E8BF0895F894D9
:10024800A895E1B5E861E1BDEDE0E1BD78940895D8
:100258002ADFF5DF7894EADFA895989B17C09A9B68
:1002680014C0A0919B00B0919C0056DFE0939F00C2
:10027800F093A000A0919F00B091A0007EDF9A9813
:10028800EBB7E064EBBFE2E0EEBD19C09A9B0BC090
:100298003394E6E0E31530F423943E2EE21510F48F
:1002A800332422249A98ECE0E0939700EDE0E09361
:1002B8009800EEE0E0939900EFE0E0939A0005DF04
:1002C800CACFFFCF0A921A92FA926A937A938A93C4
:1002D8009A93AA93BA93EA93FA93EFB7EA93A6DFAD
:1002E800999907C0E2E0EEBDE0E0EDBDECBD999A5A
:1002F80050C0E091A100F0E0309761F49BD0E0930A
:10030800A200F093A3009998E091A100EF5FE09319
:10031800A1001CC0E130A0E0FA07C1F48BD0E09343
:10032800A400F093A50091D0E45DFE4FAE17BF077F
:1003380030F48BD0EC52F140EA17FB0708F002C00A
:10034800EAE001C0E0E0E093A1009998A091A10043
:10035800AA30F9F4A091A200B091A30088279927A8
:10036800E091A400F091A5006627772782D1E2E00A
:10037800F0E060E070E0F1D1E0939B00F0939C0026
:1003880060939D0070939E00E0E0E093A100989A2E
:10039800EBBFE991EFBFF991E991B991A9919991D1
:1003A800899179916991F990199009901895AA9372
:1003B800EA93EFB7EA93E091A600EF5FE093A60017
:1003C800A091A600AB3F80F0E0E0E093A600E091AA
:1003D800A700EF5FE093A700A091A700A03121F448
:1003E8009A9AE0E0E093A700E991EFBFE991A9911B
:1003F800189580E991E00197F1F70895E058E081B8
:10040800E8BB0895F1D0EA83FB836C837D83AA81DE
:10041800BB818C819D810895AC81BD810895FCDFED
:10042800E4EFF1E05DD10895EAE0E0939700E0930E
:1004380098000895E0E0EEBDECB5F0E0DF01EDB521
:10044800FE2FE0E0EA0FFB1F0895A091A400B091F1
:10045800A500E091A200F091A3000895552342F46D
:10046800503811F4E0FF04C03196691F791F6BF012
:1004780050E8572711F45F9373C05F3F31F0660F60
:10048800000C57956795752F08955F9300200AF023
:1004980073C06CC050E8192E1522880F991F952734
:1004A800550F879550E8072E0522660F771F752789
:1004B800550F67950895689401C0E8945F93F2DF3B
:1004C800703818F07F3F08F44BC056E1571BAAF468
:1004D800519558300EF4593030F0EFEFFFEF6FEFD1
:1004E8007FE777F91AC077275523B9F0EE0FFF1F7A
:1004F800661F771F5A95D1F710C07727583028F014
:10050800EF2FF62F672F5850F9CF552331F07695F6
:100518006795F795E7955A95D1F700200AF4B2D078
:100528005F910895689401C0E894309760407040E6
:10053800B1F0002426F0772312F40094A3D0172EEC
:100548007EE1112032F07A95EE0FFF1F661F111C15
:10055800F9CFEF2FF62F612D5F938ADF5F91089512
:10056800EE27FF27662777275F910895EFEFFFEFC4
:100578006FE77FEF5F910895EFEFFFEF6FE77FE79A
:100588005F9108955F9386DF703851F3903841F397
:1005980001240894791F23F41CF300203AF3ECCFCC
:1005A8003F934F93112433274427552798E1330F5E
:1005B800441F551FEE1FFF1F661F30F43A0F4B1FD5
:1005C800581FE11DF11D611D9A9589F74F913F91C3
:1005D80066232AF0550FEE1FFF1F661F02C0739592
:1005E800E3F23CDF5F9108955F9354DF703821F4A4
:1005F80011200AF4BBCFC0CF903809F4B1CF012441
:100608000894970B1BF4D4F30020F3CF792F1F9392
:100618002F933F934F9311241127222733274427E1
:10062800552790E2AE17BF078607410730F0AE1B8B
:10063800BF0B860B410B089401C08894551F221FDD
:10064800331F111CAA1FBB1F881F441F9A9551F7FF
:10065800F901612D4F913F912F911F91662332F03F
:10066800550FEE1FFF1F661F7A9543F2F7DE5F9165
:100678000895AE0FBF1F861F971F0895F195E19546
:10068800F0400895F09560957095E195FF4F6F4F94
:100698007F4F08956F2F660F660B762F0895AE175C
:1006A800BF07E1E008F4EE270895AE17BF07E1E0C1
:1006B80008F0EE2708950A2E1B2E81E1AA27BB1BFE
:1006C80005C010F4A00DB11DB695A795F795E7954F
:1006D8008A95B9F7089549D0EEDF0EF4CFDF089573
:1006E8000024112490E1AA0FBB1F001C111C0E1A34
:1006F8001F0A18F40E0E1F1E01C0A1609A9599F7E3
:10070800FD01D001089531D0EBDF0EF4B7DF089575
:100718003F934F935F93002411244427552730E2D9
:10072800AA0FBB1F881F991F001C111C441F551FAF
:100738000E1A1F0A460B570B28F40E0E1F1E461FD3
:10074800571F01C0A1603A9559F7FD01BC01D001BE
:10075800CA015F914F913F91089515D0D9DF0EF4EA
:1007680091DF0895BDDFFD010895E894F7FF02C009
:1007780085DF6894B7FF06C0A095B095119600F87C
:10078800039400FA0895E89477FF02C07BDF689429
:1007980097FF0BC00024A095B09580959095119671
:1007A800801D901D00F8039400FA08953A932A9347
:1007B8001A930A9308953B812A8119810881089523
:00000001FF
